S00B000050574D2E7372656325
S11300000C942A000C943C000C943C000C943C008E
S11300100C943C000C943C000C943C000C943C006C
S11300200C943C000C943C000C943C000C943C005C
S11300300C943C000C943C000C943C000C943C004C
S11300400C943C000C943C000C943C000C943C003C
S11300500C943C0011241FBECFE5D8E0DEBFCDBF19
S113006020E0A0E6B0E001C01D92A236B207E1F79D
S11300700E943E000C945E030C94000041E060E09A
S113008080E00E945C0060E070E086E992E40E94F7
S113009002018FEF9CE70197F1F700C0000060E0D8
S11300A070E080EF91E40E9402018FEF9CE70197DA
S11300B0F1F700C00000E7CF93B7906893BFBB9AF5
S11300C0882319F0813051F013C083B7806483BF53
S11300D083B7886083BF1092610010C083B78064C7
S11300E083BF83B7877F83BF81E08093610006C0AD
S11300F083B7806483BF83B7886083BF613079F03E
S113010028F06230B1F06330F1F027C083B78F7EFE
S113011083BF83B7806283BF109260002AC083B715
S1130120806183BF83B7806283BF81E08093600076
S113013020C083B78F7E83BF83B7806283BF82E092
S11301408093600016C083B7806183BF83B78062E9
S113015083BF83E0809360000CC083B78F7E83BF2E
S113016083B7886083BF83B7806483BF83B78062AB
S113017083BF4230F9F028F4442341F0413081F048
S113018037C0433009F1443049F132C083B781604C
S113019083BF83B78D7F83BF83B78B7F83BF08956E
S11301A083B78E7F83BF83B7826083BF83B78B7F20
S11301B083BF089583B7816083BF83B7826083BFA1
S11301C083B78B7F83BF089583B78E7F83BF83B745
S11301D08D7F83BF83B7846083BF089583B78160B5
S11301E083BF83B78D7F83BF83B7846083BF089544
S11301F083B7816083BF83B7826083BF83B78B7FFC
S113020083BF089520916100222321F0213009F455
S113021044C0089520916000222319F02130B9F0E0
S113022026C020E030E040E853E40E94F10220E0E0
S113023030E048EC52E40E94FF0120E030E040E866
S11302405FE30E9492010E9471026CBF08959B01BA
S1130250AC010E9493019B01AC0160E070E08FE768
S113026093E40E9492010E9471026CBF089520E001
S113027030E040E853E40E94F10220E030E048EC32
S113028052E40E94FF0120E030E040E85FE30E9476
S113029092010E9471026CBF089520916000223087
S11302A019F0233089F028C020E030E04FE753E410
S11302B00E94F10220E030E048EC52E40E94FF0189
S11302C00E9471026CBF089520E030E04FE753E4D0
S11302D00E94F10220E030E048EC52E40E94FF0169
S11302E09B01AC0160E070E08FE793E40E9492010F
S11302F00E9471026CBF089520E030E040E853E4AE
S11303000E94F10220E030E048EC52E40E94FF0138
S113031020E030E040E85FE30E9492010E94710215
S11303206CBF08955058BB27AA270E94AA010C94B9
S1130330B7020E94A90238F00E94B00220F039F4FA
S11303409F3F19F426F40C94A6020EF4E095E7FB03
S11303500C94A002E92F0E94C80258F3BA1762074E
S113036073078407950720F079F4A6F50C94EA0244
S11303700EF4E0950B2EBA2FA02D0B01B9019001BC
S11303800C01CA01A0011124FF27591B99F0593F00
S113039050F4503E68F11A16F040A22F232F342F48
S11303A04427585FF3CF469537952795A795F04096
S11303B05395C9F77EF41F16BA0B620B730B840BAB
S11303C0BAF09150A1F0FF0FBB1F661F771F881F63
S11303D0C2F70EC0BA0F621F731F841F48F48795BB
S11303E077956795B795F7959E3F08F0B0CF9395AD
S11303F0880F08F09927EE0F9795879508950E9426
S113040013020C94B7020E94B00258F00E94A90291
S113041040F029F45F3F29F00C94A00251110C9490
S1130420EB020C94A6020E94C80268F39923B1F36C
S1130430552391F3951B550BBB27AA276217730706
S1130440840738F09F5F5F4F220F331F441FAA1F9A
S1130450A9F335D00E2E3AF0E0E832D09150504056
S1130460E695001CCAF72BD0FE2F29D0660F771F04
S1130470881FBB1F261737074807AB07B0E809F0EA
S1130480BB0B802DBF01FF2793585F4F3AF09E3F6F
S1130490510578F00C94A0020C94EB025F3FE4F356
S11304A0983ED4F3869577956795B795F7959F5FB2
S11304B0C9F7880F911D9695879597F90895E1E0FE
S11304C0660F771F881FBB1F621773078407BA075D
S11304D020F0621B730B840BBA0BEE1F88F7E095B8
S11304E008950E94D00288F09F5798F0B92F992759
S11304F0B751B0F0E1F0660F771F881F991F1AF00B
S1130500BA95C9F714C0B13091F00E94EA02B1E083
S113051008950C94EA02672F782F8827B85F39F082
S1130520B93FCCF3869577956795B395D9F73EF4A3
S113053090958095709561957F4F8F4F9F4F08954B
S113054097F99F6780E870E060E008959FEF80EC82
S1130550089500240A941616170618060906089525
S113056000240A9412161306140605060895092E8B
S11305700394000C11F4882352F0BB0F40F4BF2BFA
S113058011F460FF04C06F5F7F4F8F4F9F4F08953A
S113059057FD9058440F551F59F05F3F71F0479530
S11305A0880F97FB991F61F09F3F79F08795089515
S11305B0121613061406551FF2CF4695F1DF08C034
S11305C0161617061806991FF1CF86957105610551
S11305D008940895E894BB2766277727CB0197F9F9
S11305E008950E9404030C94B7020E94A90238F0F3
S11305F00E94B00220F0952311F00C94A0020C94F8
S1130600A60211240C94EB020E94C80270F3959F79
S1130610C1F3950F50E0551F629FF001729FBB27F5
S1130620F00DB11D639FAA27F00DB11DAA1F649F91
S11306306627B00DA11D661F829F2227B00DA11D44
S1130640621F739FB00DA11D621F839FA00D611DCA
S1130650221F749F3327A00D611D231F849F600DEB
S1130660211D822F762F6A2F11249F5750409AF014
S1130670F1F088234AF0EE0FFF1FBB1F661F771FA0
S1130680881F91505040A9F79E3F510580F00C946B
S1130690A0020C94EB025F3FE4F3983ED4F38695FA
S11306A077956795B795F795E7959F5FC1F7FE2B0B
S11306B0880F911D9695879597F90895F894FFCF23
S9030000FC
